:020000040000FA
:0400000007EF00F016
:100008002982A7ED03F073EF03F082A00EEF00F052
:1000180010EF00F02EEF00F00EEC03F0215022104C
:10002800D8A419EF00F01BEF00F021EF00F0000E4C
:10003800226E010E216E2EEF00F021042210D8A4AA
:1000480028EF00F02AEF00F02EEF00F0000E226EED
:10005800000E216E80A033EF00F035EF00F045EF81
:1000680000F00EEC03F01E0E25182610D8A43FEF62
:1000780000F041EF00F045EF00F0000E266E2C0E68
:10008800256E80A24AEF00F04CEF00F05CEF00F024
:100098000EEC03F02C0E25182610D8A456EF00F00D
:1000A80058EF00F05CEF00F0000E266E1E0E256E75
:1000B80080AA61EF00F063EF00F08CEF00F00EEC27
:1000C80003F0020E21182210D8A46DEF00F06FEF94
:1000D80000F075EF00F0000E226E010E216E8CEF1D
:1000E80000F02C0E25182610D8A47DEF00F07FEF25
:1000F80000F08CEF00F021042210D8A486EF00F065
:1001080088EF00F08CEF00F0000E226E020E216ED8
:10011800F2941200176E000E196E3F0E176497EFD7
:1001280000F099EF00F09DEF00F0400E175E010E11
:10013800196E8A94179E178C17C011F0195052EC3B
:1001480003F013C009F00A6A000E0C6E080E0B6E5D
:100158005CEC01F00950BF0BB809116E195052EC54
:1001680003F08A84195031EC03F0195031EC03F094
:10017800186E8A9417C011F0195052EC03F01450FD
:10018800D8B4C9EF00F0CBEF00F0DEEF00F013C0F9
:1001980015F0070E1516010E166E152AD6EF00F08B
:1001A800D8901636152ED4EF00F016501810186E89
:1001B800F0EF00F013C015F0070E1516010E166EBD
:1001C800152AE9EF00F0D8901636152EE7EF00F063
:1001D8001650FF0A1814186E8A8418C011F01950A6
:1001E80052EC03F01200176E9268000E806E0F0E2C
:1001F800C16E000E936E000E816E000E956E000E9D
:10020800836E000E836E8A9A310E166EB20EE82E39
:10021800FED7162EFCD700D08A8A8A988A908A92AE
:100228008A94530EE82EFED700F0C00E116E000E11
:1002380052EC03F0C00E116E010E52EC03F0400EAA
:10024800116E000E52EC03F0400E116E010E52ECCE
:1002580003F0B80E116E000E52EC03F0B80E116EDA
:10026800010E52EC03F01704D8A43DEF01F03FEF64
:1002780001F04EEF01F0000E926E80683F0E116E95
:10028800000E52EC03F03F0E116E010E52EC03F01B
:1002980058EF01F03E0E116E000E52EC03F03E0EC8
:1002A800116E010E52EC03F0000EA8EC02F01200E1
:1002B800000E0E6E0CBE65EF01F063EF01F06BEF00
:1002C80001F00B6C0C1ED8B00C2A010E0E6E0ABE83
:1002D80072EF01F070EF01F078EF01F0096C0A1E7F
:1002E800D8B00A2A010E0E1A000E106E000E0F6EFC
:1002F8000B500C10D8B483EF01F085EF01F0ADEF8F
:1003080001F0010E0D6E8DEF01F0D8900B360C3612
:100318000D2A0CAE92EF01F094EF01F089EF01F095
:10032800D8900F3610360B50095C0C500A58D8A0DC
:10033800A0EF01F0A2EF01F0A7EF01F00B50095E6A
:100348000C500A5A0F80D8900C320B320D2E94EFB5
:1003580001F00E50D8B4B3EF01F0B5EF01F0B9EFEA
:1003680001F00F6C101ED8B0102A0FC009F010C091
:100378000AF012001E6E1A501C5CD8B0C6EF01F0CD
:10038800C8EF01F0CAEF01F01CEF02F01E501B5C31
:10039800D8B0D1EF01F0D3EF01F0D5EF01F01CEFA9
:1003A80002F01EC01FF013EF02F01AC020F009EF90
:1003B80002F01E501F18D8B4E4EF01F0E6EF01F088
:1003C80001EF02F01B501F18D8B4EDEF01F0EFEF6A
:1003D80001F001EF02F01C502018D8B4F6EF01F03C
:1003E800F8EF01F001EF02F01A502018D8A4FFEF3F
:1003F80001F001EF02F008EF02F020C013F01DC079
:1004080014F01F508EEC00F0202A20501C5CD8B04D
:1004180010EF02F012EF02F0DDEF01F01F2A1F507B
:100428001B5CD8B01AEF02F01CEF02F0D9EF01F014
:100438001200000E186E000E176E000E1A6E000ED7
:100448001B6E8A94400E116E1B5052EC03F01A502A
:10045800B809116E1B5052EC03F08A84000E196E15
:1004680017501324156E18501420166E15C0F6FF79
:1004780016C0F7FF0800F5CF11F01B5052EC03F03F
:10048800174A182A192A3F0E19644DEF02F04FEF48
:1004980002F034EF02F01B2A010E1B6456EF02F043
:1004A80058EF02F025EF02F01A2A070E1A645FEFE0
:1004B80002F061EF02F023EF02F08A908A921200B4
:1004C800010EF7EC00F08EEC03F0000EA8EC02F041
:1004D80021042210D8A473EF02F075EF02F088EF20
:1004E80002F0FE0E136E7B0E146E1DEC02F025C09A
:1004F8001AF02750250F1B6E2550090F1C6E010E90
:100508001D6E2750BEEC01F021502210D8A48FEFA9
:1005180002F091EF02F094EF02F0000EA8EC02F066
:10052800020E21182210D8A49CEF02F09EEF02F0D0
:100538006CEF02F0FE0E136E770E146E1DEC02F0D7
:100548006CEF02F007EF00F0136E000E156E8A9440
:10055800400E116E000E52EC03F0400E116E010EAB
:1005680052EC03F01550B809116E000E52EC03F06E
:100578001550B809116E010E52EC03F08A84000E72
:10058800146E1350010DF3500008116E000E52EC5A
:1005980003F01350010DF3500008116E010E52ECD8
:1005A80003F0142A3F0E1464DCEF02F0DEEF02F0D1
:1005B800C5EF02F0152A070E1564E5EF02F0E7EF24
:1005C80002F0ABEF02F01200000E046E010E036E93
:1005D80002EF03F0000E066E960E056EF7EF02F0BE
:1005E8000506D8A0060605040610D8A4FEEF02F0FA
:1005F80000EF03F0F4EF02F0034A042A0350015C11
:1006080004500258D8B00BEF03F00DEF03F0EEEFF3
:1006180002F01200000E086E000E076E8D82000EAA
:10062800026E010E016EE8EC02F08D92000E026E71
:10063800010E016EE8EC02F0074A082A08BE2EEF08
:1006480003F0085009E1320E075CD8A02EEF03F042
:1006580030EF03F012EF03F01200096E0950D8B41E
:1006680038EF03F03AEF03F03EEF03F08A808A9206
:1006780040EF03F08A928A8295688A868A88080EF3
:10068800E82EFED700F083CF0AF08A98080EE82EED
:10069800FED700F08A908A920A501200126E125009
:1006A800D8B459EF03F05BEF03F05FEF03F08A80F3
:1006B8008A9261EF03F08A928A82000E956E8A967A
:1006C80011C08CFF8A88080EE82EFED700F08A98A1
:1006D800080EE82EFED700F08A908A921200660E65
:1006E800F66E070EF76E000EF86E00EE25F010EEAF
:1006F80004F00900F5CFEEFFE550E150FAE1246A75
:10070800236A226A216A29902992000EF86E000154
:1007180064EF02F0969294809280928292849286FC
:10072800928A000E806E000E826ED58ED59CD59A68
:10073800D596D594D582D590F28EF28A000ED76ED2
:10074800000ED66E12000600F2A4ADEF03F0AFEF74
:1007580003F0B1EF03F009EC00F0299211001E003C
:02076800380057
:106F3A000000000000000000000000000000000047
:106F4A000000000000000000000000000000000037
:106F5A000000000000000000000000000000000027
:106F6A000000000000000000000000000000000017
:106F7A000000000000000000000000000000000007
:106F8A0000000000000000000000000000000000F7
:106F9A0000000000000000000000000000000000E7
:106FAA0000000000000000000000000000000000D7
:106FBA0000000000000000000000000000000000C7
:106FCA0000000000000000000000000000000000B7
:106FDA0000000000000000000000000000000000A7
:106FEA000000000000000000000000000000000097
:106FFA000000000000000000000000000000000087
:10700A000000000000000000000000000000000076
:10701A000000000000000000000000000000000066
:10702A000000000000000000000000000000000056
:10703A0000000000000000000000065F5F0600007C
:10704A00000007070007070000147F7F147F7F14E2
:10705A0000242E6B6B3A120000466630180C6662EA
:10706A0000307A4F5D377A480004070300000000B9
:10707A0000001C3E63410000000041633E1C00000A
:10708A0000082A3E1C1C3E2A0808083E3E08080042
:10709A00000080E0600000000008080808080800F6
:1070AA000000006060000000006030180C06030158
:1070BA00003E7F71594D7F3E0040427F7F40400035
:1070CA0000627359496F660000226349497F36009E
:1070DA0000181C16537F7F5000276745457D3900ED
:1070EA00003C7E4B4979300000030371790F070099
:1070FA0000367F49497F360000064F49693F1E0026
:10710A000000006666000000000080E666000000DD
:10711A0000081C366341000000242424242424008F
:10712A0000004163361C080000020351590F060093
:10713A00003E7F415D5D1F1E007C7E13137E7C0036
:10714A0000417F7F49497F36001C3E6341416322EB
:10715A0000417F7F41633E1C00417F7F495D41635F
:10716A0000417F7F491D0103001C3E634151737238
:10717A00007F7F08087F7F000000417F7F41000079
:10718A0000307040417F3F0100417F7F081C7763D8
:10719A0000417F7F41406070007F7F0E1C0E7F7F21
:1071AA00007F7F060C187F7F001C3E6341633E1CF4
:1071BA0000417F7F49090F06001E3F21717F5E0053
:1071CA0000417F7F09197F6600266F4D597332008F
:1071DA000003417F7F410300007F7F40407F7F00A3
:1071EA00001F3F60603F1F00007F7F3018307F7FA5
:1071FA000043673C183C674300074F78784F070005
:10720A0000476371594D677300007F7F4141000059
:10721A00000103060C183060000041417F7F000026
:10722A0000080C0603060C0800808080808080809D
:10723A00800000030704000000207454543C784086
:10724A0000417F3F4848783000387C44446C28002D
:10725A0000307848493F7F4000387C54545C18001D
:10726A0000487E7F490302000098BCA4A4F87C046D
:10727A0000417F7F08047C780000447D7D40000047
:10728A000060E08080FD7D0000417F7F10386C4403
:10729A000000417F7F400000007C7C18381C7C780D
:1072AA00007C7C04047C780000387C44447C3800F0
:1072BA000084FCF8A4243C1800183C24A4F8FC849C
:1072CA0000447C784C041C1800485C545474240014
:1072DA000000043E7F442400003C7C40403C7C404B
:1072EA00001C3C60603C1C00003C7C7038707C3C9C
:1072FA0000446C3810386C44009CBCA0A0FC7C0094
:10730A00004C64745C4C64000008083E77414100FC
:10731A000000000077770000004141773E0808002E
:10732A0000020301030203010070784C464C787096
:10733A00000E9F91B1FB4A00003A7A40407A7A40A7
:10734A0000387C54555D19000002237555557D7B24
:10735A0042217554547D794000217555547C7840FA
:10736A0000207457577C784000183CA4A4E44000DD
:10737A0000023B7D55555D1B02397D54545D190051
:10738A0000397D55545C18000001457C7C410100A0
:10739A00000203457D7D43020001457D7C400000DB
:1073AA0000797D1612167D790070782B2B78700083
:1073BA0000447C7C5555450000207454547C7C5410
:1073CA00547C7E0B097F7F4900327B49497B32001E
:1073DA0000327A48487A320000327A4A48783000D5
:1073EA00003A7B41417B7A40003A7A4240787840C1
:1073FA00009ABAA0A0FA7A000001193C66663C1904
:10740A00013D7D40407D3D0000183C24E7E72424EF
:10741A0000687E7F49436620002B2FFCFC2F2B003F
:10742A0000FFFF09092FF6F8A040C088FE7F090374
:10743A0002207454557D79400000447D7D4100004E
:10744A00003078484A7A320000387840427A7A40E6
:10745A00007A7A0A0A7A7000007D7D19317D7D00F2
:10746A000000262F292F2F280000262F292F26003B
:10747A000030784D456020000038380808080800B8
:10748A000008080808383800004F6F3018CCEEBBE7
:10749A00914F6F30186C76FBF90000007B7B00007F
:1074AA0000081C3622081C362222361C0822361CEA
:1074BA0008AA005500AA005500AA55AA55AA55AA15
:1074CA0055DDFFAA77DDAAFF77000000FFFF000065
:1074DA0000101010FFFF000000141414FFFF00003A
:1074EA00001010FFFF00FFFF001010F0F010F0F086
:1074FA0000141414FCFC0000001414F7F700FFFF3A
:10750A00000000FFFF00FFFF001414F4F404FCFC69
:10751A000014141717101F1F0010101F1F101F1F11
:10752A00001414141F1F000000101010F0F00000C7
:10753A00000000001F1F1010101010101F1F101045
:10754A0010101010F0F0101010000000FFFF1010C3
:10755A00101010101010101010101010FFFF101043
:10756A0010000000FFFF1414140000FFFF00FFFFCB
:10757A001000001F1F101717140000FCFC04F4F47D
:10758A001414141717101717141414F4F404F4F439
:10759A00140000FFFF00F7F7141414141414141441
:1075AA00141414F7F700F7F7141414141717141413
:1075BA001410101F1F101F1F10141414F4F41414A5
:1075CA00141010F0F010F0F01000001F1F101F1F11
:1075DA00100000001F1F141414000000FCFC1414F7
:1075EA00140000F0F010F0F0101010FFFF10FFFF71
:1075FA0010141414FFFF1414141010101F1F00008D
:10760A0000000000F0F0101010FFFFFFFFFFFFFF67
:10761A00FFF0F0F0F0F0F0F0F0FFFFFFFF000000E5
:10762A000000000000FFFFFFFF0F0F0F0F0F0F0FEB
:10763A000F387C446C386C4400FCFE2A2A3E140045
:10764A00007E7E020206060000027E7E027E7E0226
:10765A000063775D4963630000387C447C3C040422
:10766A000080FE7E20203E1E000406027E7C06026A
:10767A000099BDE7E7BD9900001C3E6B496B3E1CB3
:10768A00004C7E7301737E4C0030784A4F7D39007E
:10769A0000183C243C3C243C1898FC643C3E273DA2
:1076AA0018000000000000000000000000000000B8
:1076BA0000000000000000000000000000000000C0
:1076CA0000000000000000000000000000000000B0
:1076DA0000000000000000000000000000000000A0
:1076EA000000000000000000000000000000000090
:1076FA000000000000000000000000000000000080
:10770A00000000000000000000000000000000006F
:10771A00000000000000000000000000000000005F
:10772A00000000000000000000000000000000004F
:10773A0000000000005C000C000C7C287C7C447C6F
:10774A00241048285408000C00384400443800200B
:10775A00100810381080400010101000400020104F
:10776A0008384438007C006454484454281C107C6F
:10777A004C542438542004740C28542808543800D3
:10778A005000805000102844282828442810045407
:10779A0008384C5C7814787C54283844447C443843
:1077AA007C54447C14043844347C107C007C0020D3
:1077BA00403C7C106C7C40407C087C7C047C7C4493
:1077CA007C7C14083844787C1468485424047C046B
:1077DA007C407C3C403C7C207C6C106C1C601C64B3
:1077EA00544C7C4400081020447C00080408808023
:1077FA0080040800000000000000000000000000F3
:10780A0000000000000000000000C0E0E0101010BE
:10781A0020E000000000F0F0F0F01010F0E0E000CE
:10782A0000000000F0F0F0F0101090F000000000EE
:10783A00F0F0F0F01010E0E0C000000000F0F0F00E
:10784A00F0100000F01010F0F0F0F03030F000000E
:10785A0080E0F0901010107000000000000000009E
:10786A00000000000000000000000000000000000E
:10787A0000000000000000000000000000000000FE
:10788A000000000000000000001F7F7FFF80808052
:10789A00002000000000FFFFFFFF84047FF9F94089
:1078AA0040000000FFFFFFFF82828FE0000000001F
:1078BA00FFFFFFFF80807F7F3F06000000FFFFFF82
:1078CA00FF800000000080FFFFFFFF800000000033
:1078DA00F16307878F8FFE7E3C00000000000000E6
:1078EA00000000000000000000000000000000008E
:1078FA00000000000000000000000090282828C0B6
:10790A0000F8280800F82828D000F04848F000902D
:10791A00282828C00008F8080008F80800F82808ED
:10792A0000F81820F8000000F80808F000F8280805
:10793A0000F8000000F800001800F00808F000182D
:10794A006080601800F04848F00000000000000065
:10795A00000000000000000000000000000000001D
:10796A00000000000000000000000000000000000D
:10797A000000000000000000000000F8316131F84A
:10798A0000F14949F001F9290800F90000010080D5
:10799A000909F900F00809F000F90909F001F929C3
:1079AA0028D1000811E010080101010000010101BD
:1079BA0000010101000101010000000101000000B5
:1079CA0000010000000100000100000000000000AA
:1079DA00000000000000000000000000000000009D
:1079EA00000000000000000000000000000000008D
:1079FA000000000000000000000000810808F801F3
:107A0A00F00908F001902929C900F9290900F82884
:107A1A00291100F82021F9000001F9010000F108FC
:107A2A0008F100F80001F80018608060180008F8F2
:107A3A000800F8000000F8000000F828080000001C
:107A4A00000000000000000000000000000000002C
:107A5A00000000000000000000000000000000001C
:107A6A00000000000000000000000000000000000C
:107A7A0000000000000000000000000001010000FA
:107A8A0000010100000001010000010101000100E4
:107A9A0000000001000001000000010101000001D6
:107AAA0001000000010100000000010000000101C6
:107ABA0001000101010001010100010101000000B2
:107ACA0000000000000000000000000000000000AC
:107ADA00000000000000000000000000000000009C
:107AEA00000000000000000000000000000000008C
:107AFA00000000000000000000000000000000007C
:107B0A00000000000000000000000000000000006B
:107B1A00000000000000000000000000000000005B
:107B2A00000000000000000000000000000000004B
:107B3A00000000000000000000000000000000003B
:107B4A00000000000000000000000000000000002B
:107B5A00C0000000C00000000080C00080404080DB
:107B6A0000404040C000000080C0000080C000000B
:107B7A0000000000000000000000000000000000FB
:107B8A0000000000000000000000000000000000EB
:107B9A0000000000000000000000000000000000DB
:107BAA0000000000000000000000000000000000CB
:107BBA0000000000000000000000000000000000BB
:107BCA0000000000000000000000000000000000AB
:107BDA0000030C030000080001000F000408090656
:107BEA000000000F00000801000F0003020F02004E
:107BFA00000000000000000000000000000000007B
:107C0A0000008080808080808080808080808000EA
:107C1A00000000000000000000000000808080805A
:107C2A0080808000000000000000808080808080CA
:107C3A00808080000000008080808080808080803A
:107C4A0080008080808080808080808080808080AA
:107C5A00808000000000000080808080808080801A
:107C6A00800080800000000000000000000000008A
:107C7A0000000000000000000000000000000000FA
:107C8A0000000001FFFFFFFFFFFFFFFF01FFFFFFF3
:107C9A00FFFEFCF8E00000000000E0F87FFFFFFFB5
:107CAA00FFFFFFFEE000000000000101FFFFFFFFF1
:107CBA00FFFFFFFEF0F8F8FFFFFFFFFFFFFFFF01E6
:107CCA0000000001FFFFFFFFFFFFFFFF81C1F3FF7D
:107CDA001F1F000000F8FEFFFFFFFFF1F0E0E1C305
:107CEA00C7BFBF3F00000000000000000000000006
:107CFA00000000000000000000000000000000007A
:107D0A0000000000FFFFFFFFFFFFFFFF00FFFFFF74
:107D1A00FFFFFF7F1F000000F0FF3F3330303FFFBF
:107D2A00FFFFFFFFFFFEE00000000000FFFFFF0F64
:107D3A007FFFFFFFFF1F01FFFFFFFFFFFFFFFF00A6
:107D4A0000000000FFFFFFFFFFFFFFFF03071F1FE9
:107D5A00C0E0E00000F0F1F387070F0F1F1F3FFF9D
:107D6A00FFFFFFFF7C000000000000000000000091
:107D7A0000000000000000000000000000000000F9
:107D8A000000040607070707070707070607070390
:107D9A00030100000004060707070604000006079F
:107DAA000707070707070706040004060707070669
:107DBA000603070700060607070707070707070658
:107DCA00040004060707070707070707060606074A
:107DDA000707070000070707070706040004060746
:107DEA00070303010000000000000000000000007B
:107DFA000000000000000000000000000000000079
:107E0A000000000000000000000000000000000068
:107E1A000000000000000000000000000000000058
:107E2A000000000000000000000000000000000048
:107E3A003F050502003F202020003E0B0B3E0001BB
:107E4A00023C0301000000000000000000000000E6
:107E5A000000000000000000000000000000000018
:107E6A000000000000000000000000000000000008
:107E7A0000000000000000000000000000000000F8
:107E8A0000000000000000000000000000000000E8
:107E9A0000000000000000000000000000000000D8
:107EAA000000000000000000000000000000008048
:107EBA00C040C08000C040408000C0404000C04078
:107ECA0040800040C0400040C040008040408000E8
:107EDA000000000000000000000000000000000098
:107EEA000000000000000000000000000000000088
:107EFA000000000000000000000000000000000078
:107F0A000000000000000000000000000000000067
:107F1A000000000000000000000000000000000057
:107F2A000000000000000000000000000000000740
:107F3A000C080804000F01030C000F0908000F08C1
:107F4A00080700080F0800000F0000090A0A0400C9
:107F5A000000000000000000000000000000000017
:107F6A000000000000000000000000000000000007
:107F7A0000000000000000000000000000000000F7
:107F8A0000000000000000000000000000000000E7
:107F9A0000000000000000000000000000000000D7
:107FAA0000000000000000000000000000000000C7
:107FBA0000000000000000000000000000000000B7
:107FCA0000000000000000000000000000000000A7
:107FDA000000000000000000000000000000000097
:107FEA000000000000000000000000000000000087
:057FFA00000000000082
:020000040020DA
:08000000FFFFFFFFFFFFFFFF00
:020000040030CA
:0E000000000C191EFF8181FF0FC00FE00F40A2
:00000001FF
